{
  "transactions": [
    {
      "hash": "0x955d61734c9e41f78b6b201f6ef2654a3f5df5b54ac9140c7093a4136f216746",
      "transactionType": "CALL",
      "contractName": null,
      "contractAddress": "0x4200000000000000000000000000000000000010",
      "function": "bridgeERC20(address,address,uint256,uint32,bytes)",
      "arguments": [
        "0x87E6eB40b13BB84516560259e67eC5Fce8f198f3",
        "0xEC642550ef8F3Bc4E7Bf26F0dCA9744b72eE7268",
        "100000000000000000000",
        "200000",
        "0x"
      ],
      "transaction": {
        "from": "0x16b266ed439cfc5e1ff9ea2ddd3282cf449eaa9c",
        "to": "0x4200000000000000000000000000000000000010",
        "gas": "0x35139",
        "value": "0x0",
        "input": "0x8708762300000000000000000000000087e6eb40b13bb84516560259e67ec5fce8f198f3000000000000000000000000ec642550ef8f3bc4e7bf26f0dca9744b72ee72680000000000000000000000000000000000000000000000056bc75e2d631000000000000000000000000000000000000000000000000000000000000000030d4000000000000000000000000000000000000000000000000000000000000000a00000000000000000000000000000000000000000000000000000000000000000",
        "nonce": "0x1",
        "chainId": "0x7ca7"
      },
      "additionalContracts": [],
      "isFixedGasLimit": false
    }
  ],
  "receipts": [
    {
      "status": "0x1",
      "cumulativeGasUsed": "0x310a5",
      "logs": [
        {
          "address": "0x87e6eb40b13bb84516560259e67ec5fce8f198f3",
          "topics": [
            "0xddf252ad1be2c89b69c2b068fc378daa952ba7f163c4a11628f55a4df523b3ef",
            "0x00000000000000000000000016b266ed439cfc5e1ff9ea2ddd3282cf449eaa9c",
            "0x0000000000000000000000000000000000000000000000000000000000000000"
          ],
          "data": "0x0000000000000000000000000000000000000000000000056bc75e2d63100000",
          "blockHash": "0x51f9a3a5588b1927b3ab4b378b19a44764069cf7d8d0982a125cde0b989b141c",
          "blockNumber": "0x32efb9",
          "transactionHash": "0x955d61734c9e41f78b6b201f6ef2654a3f5df5b54ac9140c7093a4136f216746",
          "transactionIndex": "0x1",
          "logIndex": "0x0",
          "removed": false
        },
        {
          "address": "0x4200000000000000000000000000000000000010",
          "topics": [
            "0x73d170910aba9e6d50b102db522b1dbcd796216f5128b445aa2135272886497e",
            "0x000000000000000000000000ec642550ef8f3bc4e7bf26f0dca9744b72ee7268",
            "0x00000000000000000000000087e6eb40b13bb84516560259e67ec5fce8f198f3",
            "0x00000000000000000000000016b266ed439cfc5e1ff9ea2ddd3282cf449eaa9c"
          ],
          "data": "0x00000000000000000000000016b266ed439cfc5e1ff9ea2ddd3282cf449eaa9c0000000000000000000000000000000000000000000000056bc75e2d6310000000000000000000000000000000000000000000000000000000000000000000600000000000000000000000000000000000000000000000000000000000000000",
          "blockHash": "0x51f9a3a5588b1927b3ab4b378b19a44764069cf7d8d0982a125cde0b989b141c",
          "blockNumber": "0x32efb9",
          "transactionHash": "0x955d61734c9e41f78b6b201f6ef2654a3f5df5b54ac9140c7093a4136f216746",
          "transactionIndex": "0x1",
          "logIndex": "0x1",
          "removed": false
        },
        {
          "address": "0x4200000000000000000000000000000000000010",
          "topics": [
            "0x7ff126db8024424bbfd9826e8ab82ff59136289ea440b04b39a0df1b03b9cabf",
            "0x00000000000000000000000087e6eb40b13bb84516560259e67ec5fce8f198f3",
            "0x000000000000000000000000ec642550ef8f3bc4e7bf26f0dca9744b72ee7268",
            "0x00000000000000000000000016b266ed439cfc5e1ff9ea2ddd3282cf449eaa9c"
          ],
          "data": "0x00000000000000000000000016b266ed439cfc5e1ff9ea2ddd3282cf449eaa9c0000000000000000000000000000000000000000000000056bc75e2d6310000000000000000000000000000000000000000000000000000000000000000000600000000000000000000000000000000000000000000000000000000000000000",
          "blockHash": "0x51f9a3a5588b1927b3ab4b378b19a44764069cf7d8d0982a125cde0b989b141c",
          "blockNumber": "0x32efb9",
          "transactionHash": "0x955d61734c9e41f78b6b201f6ef2654a3f5df5b54ac9140c7093a4136f216746",
          "transactionIndex": "0x1",
          "logIndex": "0x2",
          "removed": false
        },
        {
          "address": "0x4200000000000000000000000000000000000016",
          "topics": [
            "0x02a52367d10742d8032712c1bb8e0144ff1ec5ffda1ed7d70bb05a2744955054",
            "0x0001000000000000000000000000000000000000000000000000000000000022",
            "0x0000000000000000000000004200000000000000000000000000000000000007",
            "0x000000000000000000000000df07e15bbfd880539a732c0ec14cc6bd7620419d"
          ],
          "data": "0x0000000000000000000000000000000000000000000000000000000000000000000000000000000000000000000000000000000000000000000000000007812e0000000000000000000000000000000000000000000000000000000000000080b7adbfe6cf36d363fde4b0a0b510719a9d442538e9d81a68f5e55f307f32851d00000000000000000000000000000000000000000000000000000000000001e4d764ad0b000100000000000000000000000000000000000000000000000000000000002200000000000000000000000042000000000000000000000000000000000000100000000000000000000000008f42bd64b98f35ec696b968e3ad073886464dec100000000000000000000000000000000000000000000000000000000000000000000000000000000000000000000000000000000000000000000000000030d4000000000000000000000000000000000000000000000000000000000000000c000000000000000000000000000000000000000000000000000000000000000e40166a07a000000000000000000000000ec642550ef8f3bc4e7bf26f0dca9744b72ee726800000000000000000000000087e6eb40b13bb84516560259e67ec5fce8f198f300000000000000000000000016b266ed439cfc5e1ff9ea2ddd3282cf449eaa9c00000000000000000000000016b266ed439cfc5e1ff9ea2ddd3282cf449eaa9c0000000000000000000000000000000000000000000000056bc75e2d6310000000000000000000000000000000000000000000000000000000000000000000c000000000000000000000000000000000000000000000000000000000000000000000000000000000000000000000000000000000000000000000000000000000000000000000000000000000000000000000000000000000",
          "blockHash": "0x51f9a3a5588b1927b3ab4b378b19a44764069cf7d8d0982a125cde0b989b141c",
          "blockNumber": "0x32efb9",
          "transactionHash": "0x955d61734c9e41f78b6b201f6ef2654a3f5df5b54ac9140c7093a4136f216746",
          "transactionIndex": "0x1",
          "logIndex": "0x3",
          "removed": false
        },
        {
          "address": "0x4200000000000000000000000000000000000007",
          "topics": [
            "0xcb0f7ffd78f9aee47a248fae8db181db6eee833039123e026dcbff529522e52a",
            "0x0000000000000000000000008f42bd64b98f35ec696b968e3ad073886464dec1"
          ],
          "data": "0x0000000000000000000000004200000000000000000000000000000000000010000000000000000000000000000000000000000000000000000000000000008000010000000000000000000000000000000000000000000000000000000000220000000000000000000000000000000000000000000000000000000000030d4000000000000000000000000000000000000000000000000000000000000000e40166a07a000000000000000000000000ec642550ef8f3bc4e7bf26f0dca9744b72ee726800000000000000000000000087e6eb40b13bb84516560259e67ec5fce8f198f300000000000000000000000016b266ed439cfc5e1ff9ea2ddd3282cf449eaa9c00000000000000000000000016b266ed439cfc5e1ff9ea2ddd3282cf449eaa9c0000000000000000000000000000000000000000000000056bc75e2d6310000000000000000000000000000000000000000000000000000000000000000000c0000000000000000000000000000000000000000000000000000000000000000000000000000000000000000000000000000000000000000000000000",
          "blockHash": "0x51f9a3a5588b1927b3ab4b378b19a44764069cf7d8d0982a125cde0b989b141c",
          "blockNumber": "0x32efb9",
          "transactionHash": "0x955d61734c9e41f78b6b201f6ef2654a3f5df5b54ac9140c7093a4136f216746",
          "transactionIndex": "0x1",
          "logIndex": "0x4",
          "removed": false
        },
        {
          "address": "0x4200000000000000000000000000000000000007",
          "topics": [
            "0x8ebb2ec2465bdb2a06a66fc37a0963af8a2a6a1479d81d56fdb8cbb98096d546",
            "0x0000000000000000000000004200000000000000000000000000000000000010"
          ],
          "data": "0x0000000000000000000000000000000000000000000000000000000000000000",
          "blockHash": "0x51f9a3a5588b1927b3ab4b378b19a44764069cf7d8d0982a125cde0b989b141c",
          "blockNumber": "0x32efb9",
          "transactionHash": "0x955d61734c9e41f78b6b201f6ef2654a3f5df5b54ac9140c7093a4136f216746",
          "transactionIndex": "0x1",
          "logIndex": "0x5",
          "removed": false
        }
      ],
      "logsBloom": "0x0000000800004000001000000000000000000080040000000010000000100000000000000000008000000000000400c004000000000040000000120004000000000000008008000040000028000020800400000000000000000800000000000000000000020000200000000000000800800800000000000000000094000000000200000020000000000000000000000010800000000100000001000000000000000000000000000001008000000000000000200000000000000000000000000000000002000000000000800408020000000002100000000000048000000020000002000000010000000100400000000000000000000000000000000000000000",
      "type": "0x2",
      "transactionHash": "0x955d61734c9e41f78b6b201f6ef2654a3f5df5b54ac9140c7093a4136f216746",
      "transactionIndex": "0x1",
      "blockHash": "0x51f9a3a5588b1927b3ab4b378b19a44764069cf7d8d0982a125cde0b989b141c",
      "blockNumber": "0x32efb9",
      "gasUsed": "0x244ab",
      "effectiveGasPrice": "0xfd",
      "from": "0x16b266ed439cfc5e1ff9ea2ddd3282cf449eaa9c",
      "to": "0x4200000000000000000000000000000000000010",
      "contractAddress": null,
      "l1BaseFeeScalar": "0xa31c2",
      "l1BlobBaseFee": "0x1",
      "l1BlobBaseFeeScalar": "0x0",
      "l1Fee": "0x130edc82ef7",
      "l1GasPrice": "0x3f381245",
      "l1GasUsed": "0x738"
    }
  ],
  "libraries": [],
  "pending": [],
  "returns": {},
  "timestamp": 1747245907,
  "chain": 31911,
  "commit": "8a9dd4a"
}