{
  "transactions": [
    {
      "hash": "0xf306a34c2e877e6c2ea4e230baaf3a4f9aeeb9e4e86352feee570ee3569098ee",
      "transactionType": "CALL",
      "contractName": "L1Token",
      "contractAddress": "0xec642550ef8f3bc4e7bf26f0dca9744b72ee7268",
      "function": "approve(address,uint256)",
      "arguments": [
        "0x8f42BD64b98f35EC696b968e3ad073886464dEC1",
        "1000000000000000000000"
      ],
      "transaction": {
        "from": "0x16b266ed439cfc5e1ff9ea2ddd3282cf449eaa9c",
        "to": "0xec642550ef8f3bc4e7bf26f0dca9744b72ee7268",
        "gas": "0x10915",
        "value": "0x0",
        "input": "0x095ea7b30000000000000000000000008f42bd64b98f35ec696b968e3ad073886464dec100000000000000000000000000000000000000000000003635c9adc5dea00000",
        "nonce": "0x2",
        "chainId": "0xaa36a7"
      },
      "additionalContracts": [],
      "isFixedGasLimit": false
    },
    {
      "hash": "0x5997f40f8417be5ab45eb225f7726de76e295303f48a4337f328a873a3ed6af4",
      "transactionType": "CALL",
      "contractName": null,
      "contractAddress": "0x8f42bd64b98f35ec696b968e3ad073886464dec1",
      "function": "depositERC20(address,address,uint256,uint32,bytes)",
      "arguments": [
        "0xEC642550ef8F3Bc4E7Bf26F0dCA9744b72eE7268",
        "0x87E6eB40b13BB84516560259e67eC5Fce8f198f3",
        "1000000000000000000000",
        "200000",
        "0x"
      ],
      "transaction": {
        "from": "0x16b266ed439cfc5e1ff9ea2ddd3282cf449eaa9c",
        "to": "0x8f42bd64b98f35ec696b968e3ad073886464dec1",
        "gas": "0xddbde",
        "value": "0x0",
        "input": "0x58a997f6000000000000000000000000ec642550ef8f3bc4e7bf26f0dca9744b72ee726800000000000000000000000087e6eb40b13bb84516560259e67ec5fce8f198f300000000000000000000000000000000000000000000003635c9adc5dea000000000000000000000000000000000000000000000000000000000000000030d4000000000000000000000000000000000000000000000000000000000000000a00000000000000000000000000000000000000000000000000000000000000000",
        "nonce": "0x3",
        "chainId": "0xaa36a7"
      },
      "additionalContracts": [],
      "isFixedGasLimit": false
    }
  ],
  "receipts": [
    {
      "status": "0x1",
      "cumulativeGasUsed": "0x1ea1c87",
      "logs": [
        {
          "address": "0xec642550ef8f3bc4e7bf26f0dca9744b72ee7268",
          "topics": [
            "0x8c5be1e5ebec7d5bd14f71427d1e84f3dd0314c0f7b2291e5b200ac8c7c3b925",
            "0x00000000000000000000000016b266ed439cfc5e1ff9ea2ddd3282cf449eaa9c",
            "0x0000000000000000000000008f42bd64b98f35ec696b968e3ad073886464dec1"
          ],
          "data": "0x00000000000000000000000000000000000000000000003635c9adc5dea00000",
          "blockHash": "0x846d74060743029a093bf857a1aeb8c5480c17722ac8bdd0f677baa61e4d54c2",
          "blockNumber": "0x7f0d19",
          "blockTimestamp": "0x6824d390",
          "transactionHash": "0xf306a34c2e877e6c2ea4e230baaf3a4f9aeeb9e4e86352feee570ee3569098ee",
          "transactionIndex": "0xf2",
          "logIndex": "0x1b9",
          "removed": false
        }
      ],
      "logsBloom": "0x00000000000010000000000000000000000000000000000000000000000000000000000000000000000000000000000000000000000000000000020004200000000000000000000000000020000020800000000000000000000000000000000000000000000000200000000000000000000000000000000000000000000000000000000000000000000000000000000000000000000000000000000000000000020040000000000000000000000000000000000000000004000000000000000000000000000000000000000000000000000000000000000000000000000000000010000000000000000000000000000000000000000000000000000000000000",
      "type": "0x2",
      "transactionHash": "0xf306a34c2e877e6c2ea4e230baaf3a4f9aeeb9e4e86352feee570ee3569098ee",
      "transactionIndex": "0xf2",
      "blockHash": "0x846d74060743029a093bf857a1aeb8c5480c17722ac8bdd0f677baa61e4d54c2",
      "blockNumber": "0x7f0d19",
      "gasUsed": "0xb541",
      "effectiveGasPrice": "0x98ca9bb4",
      "from": "0x16b266ed439cfc5e1ff9ea2ddd3282cf449eaa9c",
      "to": "0xec642550ef8f3bc4e7bf26f0dca9744b72ee7268",
      "contractAddress": null
    },
    {
      "status": "0x1",
      "cumulativeGasUsed": "0x1ef91fe",
      "logs": [
        {
          "address": "0xec642550ef8f3bc4e7bf26f0dca9744b72ee7268",
          "topics": [
            "0xddf252ad1be2c89b69c2b068fc378daa952ba7f163c4a11628f55a4df523b3ef",
            "0x00000000000000000000000016b266ed439cfc5e1ff9ea2ddd3282cf449eaa9c",
            "0x0000000000000000000000008f42bd64b98f35ec696b968e3ad073886464dec1"
          ],
          "data": "0x00000000000000000000000000000000000000000000003635c9adc5dea00000",
          "blockHash": "0x846d74060743029a093bf857a1aeb8c5480c17722ac8bdd0f677baa61e4d54c2",
          "blockNumber": "0x7f0d19",
          "blockTimestamp": "0x6824d390",
          "transactionHash": "0x5997f40f8417be5ab45eb225f7726de76e295303f48a4337f328a873a3ed6af4",
          "transactionIndex": "0xf3",
          "logIndex": "0x1ba",
          "removed": false
        },
        {
          "address": "0x8f42bd64b98f35ec696b968e3ad073886464dec1",
          "topics": [
            "0x718594027abd4eaed59f95162563e0cc6d0e8d5b86b1c7be8b1b0ac3343d0396",
            "0x000000000000000000000000ec642550ef8f3bc4e7bf26f0dca9744b72ee7268",
            "0x00000000000000000000000087e6eb40b13bb84516560259e67ec5fce8f198f3",
            "0x00000000000000000000000016b266ed439cfc5e1ff9ea2ddd3282cf449eaa9c"
          ],
          "data": "0x00000000000000000000000016b266ed439cfc5e1ff9ea2ddd3282cf449eaa9c00000000000000000000000000000000000000000000003635c9adc5dea0000000000000000000000000000000000000000000000000000000000000000000600000000000000000000000000000000000000000000000000000000000000000",
          "blockHash": "0x846d74060743029a093bf857a1aeb8c5480c17722ac8bdd0f677baa61e4d54c2",
          "blockNumber": "0x7f0d19",
          "blockTimestamp": "0x6824d390",
          "transactionHash": "0x5997f40f8417be5ab45eb225f7726de76e295303f48a4337f328a873a3ed6af4",
          "transactionIndex": "0xf3",
          "logIndex": "0x1bb",
          "removed": false
        },
        {
          "address": "0x8f42bd64b98f35ec696b968e3ad073886464dec1",
          "topics": [
            "0x7ff126db8024424bbfd9826e8ab82ff59136289ea440b04b39a0df1b03b9cabf",
            "0x000000000000000000000000ec642550ef8f3bc4e7bf26f0dca9744b72ee7268",
            "0x00000000000000000000000087e6eb40b13bb84516560259e67ec5fce8f198f3",
            "0x00000000000000000000000016b266ed439cfc5e1ff9ea2ddd3282cf449eaa9c"
          ],
          "data": "0x00000000000000000000000016b266ed439cfc5e1ff9ea2ddd3282cf449eaa9c00000000000000000000000000000000000000000000003635c9adc5dea0000000000000000000000000000000000000000000000000000000000000000000600000000000000000000000000000000000000000000000000000000000000000",
          "blockHash": "0x846d74060743029a093bf857a1aeb8c5480c17722ac8bdd0f677baa61e4d54c2",
          "blockNumber": "0x7f0d19",
          "blockTimestamp": "0x6824d390",
          "transactionHash": "0x5997f40f8417be5ab45eb225f7726de76e295303f48a4337f328a873a3ed6af4",
          "transactionIndex": "0xf3",
          "logIndex": "0x1bc",
          "removed": false
        },
        {
          "address": "0x2dcc660014f553a7db28f6ae06c45b2a3d2341e5",
          "topics": [
            "0xb3813568d9991fc951961fcb4c784893574240a28925604d09fc577c55bb7c32",
            "0x000000000000000000000000f018e15bbfd880539a732c0ec14cc6bd762052ae",
            "0x0000000000000000000000004200000000000000000000000000000000000007",
            "0x0000000000000000000000000000000000000000000000000000000000000000"
          ],
          "data": "0x0000000000000000000000000000000000000000000000000000000000000020000000000000000000000000000000000000000000000000000000000000022d00000000000000000000000000000000000000000000000000000000000000000000000000000000000000000000000000000000000000000000000000000000000000000007812e00d764ad0b00010000000000000000000000000000000000000000000000000000000000510000000000000000000000008f42bd64b98f35ec696b968e3ad073886464dec1000000000000000000000000420000000000000000000000000000000000001000000000000000000000000000000000000000000000000000000000000000000000000000000000000000000000000000000000000000000000000000030d4000000000000000000000000000000000000000000000000000000000000000c000000000000000000000000000000000000000000000000000000000000000e40166a07a00000000000000000000000087e6eb40b13bb84516560259e67ec5fce8f198f3000000000000000000000000ec642550ef8f3bc4e7bf26f0dca9744b72ee726800000000000000000000000016b266ed439cfc5e1ff9ea2ddd3282cf449eaa9c00000000000000000000000016b266ed439cfc5e1ff9ea2ddd3282cf449eaa9c00000000000000000000000000000000000000000000003635c9adc5dea0000000000000000000000000000000000000000000000000000000000000000000c000000000000000000000000000000000000000000000000000000000000000000000000000000000000000000000000000000000000000000000000000000000000000000000000000000000000000",
          "blockHash": "0x846d74060743029a093bf857a1aeb8c5480c17722ac8bdd0f677baa61e4d54c2",
          "blockNumber": "0x7f0d19",
          "blockTimestamp": "0x6824d390",
          "transactionHash": "0x5997f40f8417be5ab45eb225f7726de76e295303f48a4337f328a873a3ed6af4",
          "transactionIndex": "0xf3",
          "logIndex": "0x1bd",
          "removed": false
        },
        {
          "address": "0xdf07e15bbfd880539a732c0ec14cc6bd7620419d",
          "topics": [
            "0xcb0f7ffd78f9aee47a248fae8db181db6eee833039123e026dcbff529522e52a",
            "0x0000000000000000000000004200000000000000000000000000000000000010"
          ],
          "data": "0x0000000000000000000000008f42bd64b98f35ec696b968e3ad073886464dec1000000000000000000000000000000000000000000000000000000000000008000010000000000000000000000000000000000000000000000000000000000510000000000000000000000000000000000000000000000000000000000030d4000000000000000000000000000000000000000000000000000000000000000e40166a07a00000000000000000000000087e6eb40b13bb84516560259e67ec5fce8f198f3000000000000000000000000ec642550ef8f3bc4e7bf26f0dca9744b72ee726800000000000000000000000016b266ed439cfc5e1ff9ea2ddd3282cf449eaa9c00000000000000000000000016b266ed439cfc5e1ff9ea2ddd3282cf449eaa9c00000000000000000000000000000000000000000000003635c9adc5dea0000000000000000000000000000000000000000000000000000000000000000000c0000000000000000000000000000000000000000000000000000000000000000000000000000000000000000000000000000000000000000000000000",
          "blockHash": "0x846d74060743029a093bf857a1aeb8c5480c17722ac8bdd0f677baa61e4d54c2",
          "blockNumber": "0x7f0d19",
          "blockTimestamp": "0x6824d390",
          "transactionHash": "0x5997f40f8417be5ab45eb225f7726de76e295303f48a4337f328a873a3ed6af4",
          "transactionIndex": "0xf3",
          "logIndex": "0x1be",
          "removed": false
        },
        {
          "address": "0xdf07e15bbfd880539a732c0ec14cc6bd7620419d",
          "topics": [
            "0x8ebb2ec2465bdb2a06a66fc37a0963af8a2a6a1479d81d56fdb8cbb98096d546",
            "0x0000000000000000000000008f42bd64b98f35ec696b968e3ad073886464dec1"
          ],
          "data": "0x0000000000000000000000000000000000000000000000000000000000000000",
          "blockHash": "0x846d74060743029a093bf857a1aeb8c5480c17722ac8bdd0f677baa61e4d54c2",
          "blockNumber": "0x7f0d19",
          "blockTimestamp": "0x6824d390",
          "transactionHash": "0x5997f40f8417be5ab45eb225f7726de76e295303f48a4337f328a873a3ed6af4",
          "transactionIndex": "0xf3",
          "logIndex": "0x1bf",
          "removed": false
        }
      ],
      "logsBloom": "0x0400400004005000001000000400000000000000000000000000000000000000000000040000000040000000000400c04000000000000000000012000400000000000000000800004000002a000020802400000000000000000000000000000000000000020000200200001000000800000800000000004000000090000000000200000020000000000002000000000010000000000000000001000000400000000040000000000000008000000000000000000800000044000000000000000000000002000000000000000008020000000000000000000000040000000020000002000000000000000000402000000000000000080000000000000000000000",
      "type": "0x2",
      "transactionHash": "0x5997f40f8417be5ab45eb225f7726de76e295303f48a4337f328a873a3ed6af4",
      "transactionIndex": "0xf3",
      "blockHash": "0x846d74060743029a093bf857a1aeb8c5480c17722ac8bdd0f677baa61e4d54c2",
      "blockNumber": "0x7f0d19",
      "gasUsed": "0x57577",
      "effectiveGasPrice": "0x98ca9bb4",
      "from": "0x16b266ed439cfc5e1ff9ea2ddd3282cf449eaa9c",
      "to": "0x8f42bd64b98f35ec696b968e3ad073886464dec1",
      "contractAddress": null
    }
  ],
  "libraries": [],
  "pending": [],
  "returns": {},
  "timestamp": 1747243920,
  "chain": 11155111,
  "commit": "8a9dd4a"
}